:040000000C94570005
:100004000C9400000C9400000C9400000C9400006C
:100014000C9400000C9400000C9400000C9400005C
:100024000C9400000C9400000C9400000C9400004C
:100034000C9400000C9400000C9400000C9400003C
:100044000C9400000C9400000C9400000C9400002C
:100054001027E80364000A000100001000011000EA
:1000640001006F000D000D00000001004465736382
:10007400656E64696E6700417363656E64696E677B
:100084000025640001002D4E414E00494E460000FB
:100094000A00040066000B00600270000A006B0294
:1000A4007B000100840288000000F894EE27ECBB7A
:1000B400F1E0FBBFEBBFE5BF8DE0A2E0BB27ED9312
:1000C4008A95E9F780E098E0A0E6ED930197E9F7D7
:1000D400E4E9F0E085919591009761F0A591B591DF
:1000E40005901590BF01F00105900D920197E1F77D
:1000F400FB01F0CFEFE5EDBFE8E0EEBFC0E6D2E0F4
:100104000C94FC000A2C0B2831F58614970419F47E
:10011400E1E0F0E06F018614970421F0E2E0F0E002
:100124006F013401A0EC96D0E1E0F0E0EC15FD05A0
:1001340031F4F20131972F01A0E6B2E09FD0E2E062
:10014400F0E0EC15FD0531F4F20131962F01ABE638
:10015400B2E094D0D7CFF6010895C4980E9410035A
:10016400B09903C0E7E0F0E02F01B19903C0E8E0E3
:10017400F0E02F01B29903C0E9E0F0E02F01C49A46
:10018400C5980E941003B09903C0E4E0F0E02F0189
:10019400B19903C0E5E0F0E02F01B29903C0E6E0B5
:1001A400F0E02F01B39903C0E1E0F0E03F01C59A0C
:1001B400C6980E941003B09903C0E1E0F0E02F015B
:1001C400B19903C0E2E0F0E02F01B29903C0E3E08B
:1001D400F0E02F01C69AC7980E941003B09903C09B
:1001E400E1E0F0E05F01B19902C044245524C49ACF
:1001F400E42D0895E0EFE7BBEFEFE4BBE1BBA8E338
:1002040029D0AFE027D0A1E025D0A0E823D0A5DFF6
:1002140079DFE5E7F2E0FA93EA93E5E8F0E0FA93B0
:10022400EA93F2010E945A030E94670384E00E9449
:10023400C30228960E941403A0E80CD00E94140361
:10024400AA24BB24A1E006D0A8EEB3E00E94480390
:10025400DCCFFFCFAA93E2E0E5BBE881E2BBE0E0BC
:1002640006C0AA93E3E0E5BBE881E2BBE1E0E5BBBD
:10027400AFE0B0E00E94480321960895BA93AA9390
:10028400A881B981EC91E03031F0ED91A883B98374
:10029400AE2FE7DFF5CF22960895BA93AA931A9367
:1002A4000A93AA81BB8112960E945F03309759F189
:1002B400AA81BB8114960E945F038F01309761F07D
:1002C4000230E0E01E0798F0F80131978F01AA810F
:1002D400BB811496ED93FC93AA81BB811296ED9198
:1002E400FD913196FE93EE933197AC81A083AA8160
:1002F400BB810E945F03FF232AF0ED91FD913196AB
:10030400FE93EE9306C0AA81BB81EFEFFFEFED935E
:10031400FC931981088125960895BA93AA93269788
:100324000E946C0310E0AC85BD85E0E0F0E0ED9345
:10033400FC93EA89FB893196EA8BFB8B3197E49134
:100344002E2FE03009F415C1E12FE03039F42532C5
:1003540011F411E002C00E941C030AC1E130A9F4A7
:10036400253219F40E941C0302C112E040E000E0AF
:100374002D3211F401E0FCC02B3211F44BE2F8C031
:10038400203211F440E2F4C002C0E23039F450E00B
:1003940013E0203311F40068EBC003C0E33009F02C
:1003A400E7C0203310F02A3308F007C0AAE05A9FB0
:1003B400502DE22FE0535E0FDBC0E22FE33649F409
:1003C4000E942303E889F989A481AA930E9429033E
:1003D400CEC0E33741F40E9423030E942F030E94FE
:1003E400F7021E2F0AC0E03761F40E9423030E9423
:1003F4002F030E9403031E2F086002600F7730E072
:1004040034C0E43611F0E93611F4046002C0E53773
:1004140031F4E4E5F0E0EE83FF8315E00CC0E83549
:1004240011F4086003C0E83709F0A1C0EEE5F0E07C
:10043400EE83FF8314E002FF14C00E9423030E9492
:100444003903AB85AA233AF4EA85FB850E94560357
:10045400EA87FB874DE2403011F01F5F01C00B7F3C
:1004640004C00E9423030E94390300FD11C0151724
:1004740078F407FF08C002FF04C00B7F242F11503B
:1004840001C020E301C020E20E941C035150EFCFC1
:10049400312F01FF17C03030A1F003FF06C0EE81F9
:1004A400FF812591EE83FF8305C0AE81BF812D912D
:1004B400AE83BF830E941C03503009F05150315069
:1004C400EACF4BC020E3EE81FF810E946303E887FB
:1004D400F987EE81FF813296EE83FF83E885F98503
:1004E400AA85BB85AE17BF0750F02F5FA885B985D5
:1004F400EA85FB85EA1BFB0BEA87FB87EFCF2A33F0
:1005040028F003FF02C0295F01C0295D04FD1AC061
:10051400213320F4A885B985119709F409C053172C
:1005240010F000FF01C013C020E207FF0BC020E35E
:10053400006102FF07C00B7F4A930E9429035030D9
:1005440009F051500E941C03503009F051503150B1
:10055400A885B985129708F0B5CF00FF08C05030C0
:1005640031F05150E0E2EA930E942903F8CF10E001
:10057400E0CEAC85BD850E945F030E947303649640
:100584000895FF92F82E26970E946E030E9441035D
:10059400309719F4EFEFFFEF23C0DE0116960E94A7
:1005A40052038D010E944103EE83FF83E0E0E8875C
:1005B400E987DE011A960E9452030E945F03FA93B0
:1005C400EA931A930A93EFE4F1E0FA93EA93DE01D3
:1005D4001A96A3DE9F01AE81BF81E0E0EC93F9019E
:1005E4000E9475032A96FF900895BA93AA93A9913D
:1005F400B991EE27FF276D91662311F03196FBCF59
:100604000895BA93AA93AA27BB27E991F991059073
:10061400002011F01196FBCFFD010895A5E0B0E094
:100624000C944803A5E7B2E00E944001A8EEB3E0B1
:100634000C9448032A93AD85BE85EF85F889099506
:100644000895E889F9893497E88BF98B0895AD8585
:10065400BE85EF85F88909950895A889B989149606
:100664000E945F03EE83FF83AE81BF810895A88952
:10067400B98914960E945F03EA87FB870895DE0117
:100684001C960E9452030E945F030895109639F04D
:1006940080ED97E00197F1F7A8951197C9F70895B0
:1006A4000024AF0DB01D0895F195E195F040089533
:1006B4006F2F660F660B762F0895ED91FC911197BD
:1006C40008950590F491E02D08957A936A93FA932E
:1006D400EA9308955A934A933A932A931A930A935E
:1006E40008955D814C813B812A8119810881089597
:00000001FF
